{
  "contractName": "UserCidRegistry",
  "abi": [
    {
      "anonymous": false,
      "inputs": [
        {
          "indexed": true,
          "internalType": "address",
          "name": "user",
          "type": "address"
        },
        {
          "indexed": false,
          "internalType": "string",
          "name": "cid",
          "type": "string"
        }
      ],
      "name": "UserCidStored",
      "type": "event"
    },
    {
      "inputs": [
        {
          "internalType": "uint256",
          "name": "",
          "type": "uint256"
        }
      ],
      "name": "userCids",
      "outputs": [
        {
          "internalType": "address",
          "name": "user",
          "type": "address"
        },
        {
          "internalType": "string",
          "name": "cid",
          "type": "string"
        }
      ],
      "stateMutability": "view",
      "type": "function",
      "constant": true
    },
    {
      "inputs": [
        {
          "internalType": "string",
          "name": "_cid",
          "type": "string"
        }
      ],
      "name": "storeUserCid",
      "outputs": [],
      "stateMutability": "nonpayable",
      "type": "function"
    },
    {
      "inputs": [],
      "name": "getUserCidCount",
      "outputs": [
        {
          "internalType": "uint256",
          "name": "",
          "type": "uint256"
        }
      ],
      "stateMutability": "view",
      "type": "function",
      "constant": true
    },
    {
      "inputs": [
        {
          "internalType": "uint256",
          "name": "index",
          "type": "uint256"
        }
      ],
      "name": "getUserCidByIndex",
      "outputs": [
        {
          "internalType": "address",
          "name": "",
          "type": "address"
        },
        {
          "internalType": "string",
          "name": "",
          "type": "string"
        }
      ],
      "stateMutability": "view",
      "type": "function",
      "constant": true
    },
    {
      "inputs": [
        {
          "internalType": "address",
          "name": "user",
          "type": "address"
        }
      ],
      "name": "isUserRegistered",
      "outputs": [
        {
          "internalType": "bool",
          "name": "",
          "type": "bool"
        }
      ],
      "stateMutability": "view",
      "type": "function",
      "constant": true
    },
    {
      "inputs": [
        {
          "internalType": "address",
          "name": "user",
          "type": "address"
        }
      ],
      "name": "getUserCid",
      "outputs": [
        {
          "internalType": "string",
          "name": "",
          "type": "string"
        }
      ],
      "stateMutability": "view",
      "type": "function",
      "constant": true
    }
  ],
  "bytecode": "0x608060405234801561001057600080fd5b50610dfc806100206000396000f3fe608060405234801561001057600080fd5b50600436106100625760003560e01c8063163f75221461006757806325583e3b1461009757806379ded9cb146100c85780638023c8a3146100f9578063dc23e7ae14610129578063f00147e314610147575b600080fd5b610081600480360381019061007c919061088b565b610163565b60405161008e91906108d3565b60405180910390f35b6100b160048036038101906100ac9190610924565b6101b9565b6040516100bf9291906109f9565b60405180910390f35b6100e260048036038101906100dd9190610924565b610295565b6040516100f09291906109f9565b60405180910390f35b610113600480360381019061010e919061088b565b61040c565b6040516101209190610a29565b60405180910390f35b610131610525565b60405161013e9190610a5a565b60405180910390f35b610161600480360381019061015c9190610baa565b610531565b005b6000600160008373ffffffffffffffffffffffffffffffffffffffff1673ffffffffffffffffffffffffffffffffffffffff16815260200190815260200160002060009054906101000a900460ff169050919050565b600081815481106101c957600080fd5b90600052602060002090600202016000915090508060000160009054906101000a900473ffffffffffffffffffffffffffffffffffffffff169080600101805461021290610c22565b80601f016020809104026020016040519081016040528092919081815260200182805461023e90610c22565b801561028b5780601f106102605761010080835404028352916020019161028b565b820191906000526020600020905b81548152906001019060200180831161026e57829003601f168201915b5050505050905082565b6000606060008054905083106102e0576040517f08c379a00000000000000000000000000000000000000000000000000000000081526004016102d790610c9f565b60405180910390fd5b60008084815481106102f5576102f4610cbf565b5b90600052602060002090600202016040518060400160405290816000820160009054906101000a900473ffffffffffffffffffffffffffffffffffffffff1673ffffffffffffffffffffffffffffffffffffffff1673ffffffffffffffffffffffffffffffffffffffff16815260200160018201805461037490610c22565b80601f01602080910402602001604051908101604052809291908181526020018280546103a090610c22565b80156103ed5780601f106103c2576101008083540402835291602001916103ed565b820191906000526020600020905b8154815290600101906020018083116103d057829003601f168201915b5050505050815250509050806000015181602001519250925050915091565b606061041782610163565b610456576040517f08c379a000000000000000000000000000000000000000000000000000000000815260040161044d90610d3a565b60405180910390fd5b600260008373ffffffffffffffffffffffffffffffffffffffff1673ffffffffffffffffffffffffffffffffffffffff16815260200190815260200160002080546104a090610c22565b80601f01602080910402602001604051908101604052809291908181526020018280546104cc90610c22565b80156105195780601f106104ee57610100808354040283529160200191610519565b820191906000526020600020905b8154815290600101906020018083116104fc57829003601f168201915b50505050509050919050565b60008080549050905090565b600160003373ffffffffffffffffffffffffffffffffffffffff1673ffffffffffffffffffffffffffffffffffffffff16815260200190815260200160002060009054906101000a900460ff16156105be576040517f08c379a00000000000000000000000000000000000000000000000000000000081526004016105b590610da6565b60405180910390fd5b600060405180604001604052803373ffffffffffffffffffffffffffffffffffffffff16815260200183815250908060018154018082558091505060019003906000526020600020906002020160009091909190915060008201518160000160006101000a81548173ffffffffffffffffffffffffffffffffffffffff021916908373ffffffffffffffffffffffffffffffffffffffff1602179055506020820151816001019080519060200190610677929190610776565b50505060018060003373ffffffffffffffffffffffffffffffffffffffff1673ffffffffffffffffffffffffffffffffffffffff16815260200190815260200160002060006101000a81548160ff02191690831515021790555080600260003373ffffffffffffffffffffffffffffffffffffffff1673ffffffffffffffffffffffffffffffffffffffff1681526020019081526020016000209080519060200190610724929190610776565b503373ffffffffffffffffffffffffffffffffffffffff167f1e083e1d484c3087c4c59f26e7033c252745c22f9fecb62776c8f6449f988f988260405161076b9190610a29565b60405180910390a250565b82805461078290610c22565b90600052602060002090601f0160209004810192826107a457600085556107eb565b82601f106107bd57805160ff19168380011785556107eb565b828001600101855582156107eb579182015b828111156107ea5782518255916020019190600101906107cf565b5b5090506107f891906107fc565b5090565b5b808211156108155760008160009055506001016107fd565b5090565b6000604051905090565b600080fd5b600080fd5b600073ffffffffffffffffffffffffffffffffffffffff82169050919050565b60006108588261082d565b9050919050565b6108688161084d565b811461087357600080fd5b50565b6000813590506108858161085f565b92915050565b6000602082840312156108a1576108a0610823565b5b60006108af84828501610876565b91505092915050565b60008115159050919050565b6108cd816108b8565b82525050565b60006020820190506108e860008301846108c4565b92915050565b6000819050919050565b610901816108ee565b811461090c57600080fd5b50565b60008135905061091e816108f8565b92915050565b60006020828403121561093a57610939610823565b5b60006109488482850161090f565b91505092915050565b61095a8161084d565b82525050565b600081519050919050565b600082825260208201905092915050565b60005b8381101561099a57808201518184015260208101905061097f565b838111156109a9576000848401525b50505050565b6000601f19601f8301169050919050565b60006109cb82610960565b6109d5818561096b565b93506109e581856020860161097c565b6109ee816109af565b840191505092915050565b6000604082019050610a0e6000830185610951565b8181036020830152610a2081846109c0565b90509392505050565b60006020820190508181036000830152610a4381846109c0565b905092915050565b610a54816108ee565b82525050565b6000602082019050610a6f6000830184610a4b565b92915050565b600080fd5b600080fd5b7f4e487b7100000000000000000000000000000000000000000000000000000000600052604160045260246000fd5b610ab7826109af565b810181811067ffffffffffffffff82111715610ad657610ad5610a7f565b5b80604052505050565b6000610ae9610819565b9050610af58282610aae565b919050565b600067ffffffffffffffff821115610b1557610b14610a7f565b5b610b1e826109af565b9050602081019050919050565b82818337600083830152505050565b6000610b4d610b4884610afa565b610adf565b905082815260208101848484011115610b6957610b68610a7a565b5b610b74848285610b2b565b509392505050565b600082601f830112610b9157610b90610a75565b5b8135610ba1848260208601610b3a565b91505092915050565b600060208284031215610bc057610bbf610823565b5b600082013567ffffffffffffffff811115610bde57610bdd610828565b5b610bea84828501610b7c565b91505092915050565b7f4e487b7100000000000000000000000000000000000000000000000000000000600052602260045260246000fd5b60006002820490506001821680610c3a57607f821691505b602082108103610c4d57610c4c610bf3565b5b50919050565b7f496e646578206f7574206f6620626f756e647300000000000000000000000000600082015250565b6000610c8960138361096b565b9150610c9482610c53565b602082019050919050565b60006020820190508181036000830152610cb881610c7c565b9050919050565b7f4e487b7100000000000000000000000000000000000000000000000000000000600052603260045260246000fd5b7f55736572206e6f74207265676973746572656400000000000000000000000000600082015250565b6000610d2460138361096b565b9150610d2f82610cee565b602082019050919050565b60006020820190508181036000830152610d5381610d17565b9050919050565b7f5573657220616c72656164792072656769737465726564000000000000000000600082015250565b6000610d9060178361096b565b9150610d9b82610d5a565b602082019050919050565b60006020820190508181036000830152610dbf81610d83565b905091905056fea264697066735822122084a516010cc42bce6eee537e9b294ba5b8158e305e5debcbdf23d227a1af725d64736f6c634300080d0033",
  "immutableReferences": {},
  "source": "// SPDX-License-Identifier: MIT\r\npragma solidity ^0.8.0;\r\n\r\ncontract UserCidRegistry {\r\n    // Estructura para almacenar la direccin de usuario y el CID\r\n    struct UserCid {\r\n        address user;\r\n        string cid;\r\n    }\r\n    // Array para almacenar todos los UserCid\r\n    UserCid[] public userCids;\r\n\r\n    // Mapping para verificar si una direccin ya ha sido registrada\r\n    mapping(address => bool) private registeredUsers;\r\n\r\n    // Mapping para almacenar el CID asociado a una direccin\r\n    mapping(address => string) private userCidMapping;\r\n\r\n    // Evento para notificar cuando se almacena un nuevo UserCid\r\n    event UserCidStored(address indexed user, string cid);\r\n\r\n    // Funcin para almacenar un nuevo UserCid\r\n    function storeUserCid(string memory _cid) public {\r\n        require(!registeredUsers[msg.sender], \"User already registered\");\r\n\r\n        userCids.push(UserCid(msg.sender, _cid));\r\n        registeredUsers[msg.sender] = true;\r\n        userCidMapping[msg.sender] = _cid;\r\n\r\n        emit UserCidStored(msg.sender, _cid);\r\n    }\r\n\r\n    // Funcin para obtener el nmero total de UserCid almacenados\r\n    function getUserCidCount() public view returns (uint256) {\r\n        return userCids.length;\r\n    }\r\n\r\n    // Funcin para obtener un UserCid por ndice\r\n    function getUserCidByIndex(\r\n        uint256 index\r\n    ) public view returns (address, string memory) {\r\n        require(index < userCids.length, \"Index out of bounds\");\r\n        UserCid memory userCid = userCids[index];\r\n        return (userCid.user, userCid.cid);\r\n    }\r\n\r\n    // Funcin para verificar si una direccin ya ha sido registrada\r\n    function isUserRegistered(address user) public view returns (bool) {\r\n        return registeredUsers[user];\r\n    }\r\n\r\n    // Funcin para obtener el CID asociado a una direccin\r\n    function getUserCid(address user) public view returns (string memory) {\r\n        require(isUserRegistered(user), \"User not registered\");\r\n        return userCidMapping[user];\r\n    }\r\n}\r\n",
  "sourcePath": "C:\\Users\\User\\Documents\\avancesT\\perfil-ipfs\\backend\\contracts\\UserCidRegistry.sol",
  "compiler": {
    "name": "solc",
    "version": "0.8.13+commit.abaa5c0e.Emscripten.clang"
  },
  "schemaVersion": "3.4.15",
  "updatedAt": "2024-05-27T05:17:37.772Z",
  "networkType": "ethereum",
  "devdoc": {
    "kind": "dev",
    "methods": {},
    "version": 1
  },
  "userdoc": {
    "kind": "user",
    "methods": {},
    "version": 1
  }
}